{
  "contractName": "CryptXxx",
  "abi": [
    {
      "inputs": [
        {
          "internalType": "address",
          "name": "_proxyRegistryAddress",
          "type": "address"
        },
        {
          "internalType": "string",
          "name": "_name",
          "type": "string"
        },
        {
          "internalType": "string",
          "name": "_symbol",
          "type": "string"
        },
        {
          "internalType": "string",
          "name": "_baseTokenURI",
          "type": "string"
        }
      ],
      "stateMutability": "nonpayable",
      "type": "constructor"
    },
    {
      "anonymous": false,
      "inputs": [
        {
          "indexed": true,
          "internalType": "address",
          "name": "owner",
          "type": "address"
        },
        {
          "indexed": true,
          "internalType": "address",
          "name": "approved",
          "type": "address"
        },
        {
          "indexed": true,
          "internalType": "uint256",
          "name": "tokenId",
          "type": "uint256"
        }
      ],
      "name": "Approval",
      "type": "event"
    },
    {
      "anonymous": false,
      "inputs": [
        {
          "indexed": true,
          "internalType": "address",
          "name": "owner",
          "type": "address"
        },
        {
          "indexed": true,
          "internalType": "address",
          "name": "operator",
          "type": "address"
        },
        {
          "indexed": false,
          "internalType": "bool",
          "name": "approved",
          "type": "bool"
        }
      ],
      "name": "ApprovalForAll",
      "type": "event"
    },
    {
      "anonymous": false,
      "inputs": [
        {
          "indexed": false,
          "internalType": "address",
          "name": "account",
          "type": "address"
        }
      ],
      "name": "Paused",
      "type": "event"
    },
    {
      "anonymous": false,
      "inputs": [
        {
          "indexed": true,
          "internalType": "bytes32",
          "name": "role",
          "type": "bytes32"
        },
        {
          "indexed": true,
          "internalType": "bytes32",
          "name": "previousAdminRole",
          "type": "bytes32"
        },
        {
          "indexed": true,
          "internalType": "bytes32",
          "name": "newAdminRole",
          "type": "bytes32"
        }
      ],
      "name": "RoleAdminChanged",
      "type": "event"
    },
    {
      "anonymous": false,
      "inputs": [
        {
          "indexed": true,
          "internalType": "bytes32",
          "name": "role",
          "type": "bytes32"
        },
        {
          "indexed": true,
          "internalType": "address",
          "name": "account",
          "type": "address"
        },
        {
          "indexed": true,
          "internalType": "address",
          "name": "sender",
          "type": "address"
        }
      ],
      "name": "RoleGranted",
      "type": "event"
    },
    {
      "anonymous": false,
      "inputs": [
        {
          "indexed": true,
          "internalType": "bytes32",
          "name": "role",
          "type": "bytes32"
        },
        {
          "indexed": true,
          "internalType": "address",
          "name": "account",
          "type": "address"
        },
        {
          "indexed": true,
          "internalType": "address",
          "name": "sender",
          "type": "address"
        }
      ],
      "name": "RoleRevoked",
      "type": "event"
    },
    {
      "anonymous": false,
      "inputs": [
        {
          "indexed": true,
          "internalType": "address",
          "name": "from",
          "type": "address"
        },
        {
          "indexed": true,
          "internalType": "address",
          "name": "to",
          "type": "address"
        },
        {
          "indexed": true,
          "internalType": "uint256",
          "name": "tokenId",
          "type": "uint256"
        }
      ],
      "name": "Transfer",
      "type": "event"
    },
    {
      "anonymous": false,
      "inputs": [
        {
          "indexed": false,
          "internalType": "address",
          "name": "account",
          "type": "address"
        }
      ],
      "name": "Unpaused",
      "type": "event"
    },
    {
      "inputs": [],
      "name": "DEFAULT_ADMIN_ROLE",
      "outputs": [
        {
          "internalType": "bytes32",
          "name": "",
          "type": "bytes32"
        }
      ],
      "stateMutability": "view",
      "type": "function",
      "constant": true
    },
    {
      "inputs": [],
      "name": "MINTER_ROLE",
      "outputs": [
        {
          "internalType": "bytes32",
          "name": "",
          "type": "bytes32"
        }
      ],
      "stateMutability": "view",
      "type": "function",
      "constant": true
    },
    {
      "inputs": [],
      "name": "PAUSER_ROLE",
      "outputs": [
        {
          "internalType": "bytes32",
          "name": "",
          "type": "bytes32"
        }
      ],
      "stateMutability": "view",
      "type": "function",
      "constant": true
    },
    {
      "inputs": [
        {
          "internalType": "address",
          "name": "to",
          "type": "address"
        },
        {
          "internalType": "uint256",
          "name": "tokenId",
          "type": "uint256"
        }
      ],
      "name": "approve",
      "outputs": [],
      "stateMutability": "nonpayable",
      "type": "function"
    },
    {
      "inputs": [
        {
          "internalType": "address",
          "name": "owner",
          "type": "address"
        }
      ],
      "name": "balanceOf",
      "outputs": [
        {
          "internalType": "uint256",
          "name": "",
          "type": "uint256"
        }
      ],
      "stateMutability": "view",
      "type": "function",
      "constant": true
    },
    {
      "inputs": [
        {
          "internalType": "uint256",
          "name": "tokenId",
          "type": "uint256"
        }
      ],
      "name": "burn",
      "outputs": [],
      "stateMutability": "nonpayable",
      "type": "function"
    },
    {
      "inputs": [
        {
          "internalType": "uint256",
          "name": "tokenId",
          "type": "uint256"
        }
      ],
      "name": "getApproved",
      "outputs": [
        {
          "internalType": "address",
          "name": "",
          "type": "address"
        }
      ],
      "stateMutability": "view",
      "type": "function",
      "constant": true
    },
    {
      "inputs": [
        {
          "internalType": "bytes32",
          "name": "role",
          "type": "bytes32"
        }
      ],
      "name": "getRoleAdmin",
      "outputs": [
        {
          "internalType": "bytes32",
          "name": "",
          "type": "bytes32"
        }
      ],
      "stateMutability": "view",
      "type": "function",
      "constant": true
    },
    {
      "inputs": [
        {
          "internalType": "bytes32",
          "name": "role",
          "type": "bytes32"
        },
        {
          "internalType": "uint256",
          "name": "index",
          "type": "uint256"
        }
      ],
      "name": "getRoleMember",
      "outputs": [
        {
          "internalType": "address",
          "name": "",
          "type": "address"
        }
      ],
      "stateMutability": "view",
      "type": "function",
      "constant": true
    },
    {
      "inputs": [
        {
          "internalType": "bytes32",
          "name": "role",
          "type": "bytes32"
        }
      ],
      "name": "getRoleMemberCount",
      "outputs": [
        {
          "internalType": "uint256",
          "name": "",
          "type": "uint256"
        }
      ],
      "stateMutability": "view",
      "type": "function",
      "constant": true
    },
    {
      "inputs": [
        {
          "internalType": "bytes32",
          "name": "role",
          "type": "bytes32"
        },
        {
          "internalType": "address",
          "name": "account",
          "type": "address"
        }
      ],
      "name": "grantRole",
      "outputs": [],
      "stateMutability": "nonpayable",
      "type": "function"
    },
    {
      "inputs": [
        {
          "internalType": "bytes32",
          "name": "role",
          "type": "bytes32"
        },
        {
          "internalType": "address",
          "name": "account",
          "type": "address"
        }
      ],
      "name": "hasRole",
      "outputs": [
        {
          "internalType": "bool",
          "name": "",
          "type": "bool"
        }
      ],
      "stateMutability": "view",
      "type": "function",
      "constant": true
    },
    {
      "inputs": [
        {
          "internalType": "address",
          "name": "to",
          "type": "address"
        }
      ],
      "name": "mint",
      "outputs": [],
      "stateMutability": "nonpayable",
      "type": "function"
    },
    {
      "inputs": [],
      "name": "name",
      "outputs": [
        {
          "internalType": "string",
          "name": "",
          "type": "string"
        }
      ],
      "stateMutability": "view",
      "type": "function",
      "constant": true
    },
    {
      "inputs": [
        {
          "internalType": "uint256",
          "name": "tokenId",
          "type": "uint256"
        }
      ],
      "name": "ownerOf",
      "outputs": [
        {
          "internalType": "address",
          "name": "",
          "type": "address"
        }
      ],
      "stateMutability": "view",
      "type": "function",
      "constant": true
    },
    {
      "inputs": [],
      "name": "pause",
      "outputs": [],
      "stateMutability": "nonpayable",
      "type": "function"
    },
    {
      "inputs": [],
      "name": "paused",
      "outputs": [
        {
          "internalType": "bool",
          "name": "",
          "type": "bool"
        }
      ],
      "stateMutability": "view",
      "type": "function",
      "constant": true
    },
    {
      "inputs": [
        {
          "internalType": "bytes32",
          "name": "role",
          "type": "bytes32"
        },
        {
          "internalType": "address",
          "name": "account",
          "type": "address"
        }
      ],
      "name": "renounceRole",
      "outputs": [],
      "stateMutability": "nonpayable",
      "type": "function"
    },
    {
      "inputs": [
        {
          "internalType": "bytes32",
          "name": "role",
          "type": "bytes32"
        },
        {
          "internalType": "address",
          "name": "account",
          "type": "address"
        }
      ],
      "name": "revokeRole",
      "outputs": [],
      "stateMutability": "nonpayable",
      "type": "function"
    },
    {
      "inputs": [
        {
          "internalType": "address",
          "name": "from",
          "type": "address"
        },
        {
          "internalType": "address",
          "name": "to",
          "type": "address"
        },
        {
          "internalType": "uint256",
          "name": "tokenId",
          "type": "uint256"
        }
      ],
      "name": "safeTransferFrom",
      "outputs": [],
      "stateMutability": "nonpayable",
      "type": "function"
    },
    {
      "inputs": [
        {
          "internalType": "address",
          "name": "from",
          "type": "address"
        },
        {
          "internalType": "address",
          "name": "to",
          "type": "address"
        },
        {
          "internalType": "uint256",
          "name": "tokenId",
          "type": "uint256"
        },
        {
          "internalType": "bytes",
          "name": "_data",
          "type": "bytes"
        }
      ],
      "name": "safeTransferFrom",
      "outputs": [],
      "stateMutability": "nonpayable",
      "type": "function"
    },
    {
      "inputs": [
        {
          "internalType": "address",
          "name": "operator",
          "type": "address"
        },
        {
          "internalType": "bool",
          "name": "approved",
          "type": "bool"
        }
      ],
      "name": "setApprovalForAll",
      "outputs": [],
      "stateMutability": "nonpayable",
      "type": "function"
    },
    {
      "inputs": [
        {
          "internalType": "bytes4",
          "name": "interfaceId",
          "type": "bytes4"
        }
      ],
      "name": "supportsInterface",
      "outputs": [
        {
          "internalType": "bool",
          "name": "",
          "type": "bool"
        }
      ],
      "stateMutability": "view",
      "type": "function",
      "constant": true
    },
    {
      "inputs": [],
      "name": "symbol",
      "outputs": [
        {
          "internalType": "string",
          "name": "",
          "type": "string"
        }
      ],
      "stateMutability": "view",
      "type": "function",
      "constant": true
    },
    {
      "inputs": [
        {
          "internalType": "uint256",
          "name": "index",
          "type": "uint256"
        }
      ],
      "name": "tokenByIndex",
      "outputs": [
        {
          "internalType": "uint256",
          "name": "",
          "type": "uint256"
        }
      ],
      "stateMutability": "view",
      "type": "function",
      "constant": true
    },
    {
      "inputs": [
        {
          "internalType": "address",
          "name": "owner",
          "type": "address"
        },
        {
          "internalType": "uint256",
          "name": "index",
          "type": "uint256"
        }
      ],
      "name": "tokenOfOwnerByIndex",
      "outputs": [
        {
          "internalType": "uint256",
          "name": "",
          "type": "uint256"
        }
      ],
      "stateMutability": "view",
      "type": "function",
      "constant": true
    },
    {
      "inputs": [
        {
          "internalType": "uint256",
          "name": "tokenId",
          "type": "uint256"
        }
      ],
      "name": "tokenURI",
      "outputs": [
        {
          "internalType": "string",
          "name": "",
          "type": "string"
        }
      ],
      "stateMutability": "view",
      "type": "function",
      "constant": true
    },
    {
      "inputs": [],
      "name": "totalSupply",
      "outputs": [
        {
          "internalType": "uint256",
          "name": "",
          "type": "uint256"
        }
      ],
      "stateMutability": "view",
      "type": "function",
      "constant": true
    },
    {
      "inputs": [
        {
          "internalType": "address",
          "name": "from",
          "type": "address"
        },
        {
          "internalType": "address",
          "name": "to",
          "type": "address"
        },
        {
          "internalType": "uint256",
          "name": "tokenId",
          "type": "uint256"
        }
      ],
      "name": "transferFrom",
      "outputs": [],
      "stateMutability": "nonpayable",
      "type": "function"
    },
    {
      "inputs": [],
      "name": "unpause",
      "outputs": [],
      "stateMutability": "nonpayable",
      "type": "function"
    },
    {
      "inputs": [
        {
          "internalType": "address",
          "name": "_owner",
          "type": "address"
        },
        {
          "internalType": "address",
          "name": "_operator",
          "type": "address"
        }
      ],
      "name": "isApprovedForAll",
      "outputs": [
        {
          "internalType": "bool",
          "name": "",
          "type": "bool"
        }
      ],
      "stateMutability": "view",
      "type": "function",
      "constant": true
    }
  ],
  "bytecode": "0x60806040523480156200001157600080fd5b506040516200519c3803806200519c8339818101604052810190620000379190620006e0565b82828282828160029080519060200190620000549291906200042e565b5080600390805190602001906200006d9291906200042e565b5050506000600c60006101000a81548160ff02191690831515021790555080600e9080519060200190620000a39291906200042e565b50620000c86000801b620000bc6200019860201b60201c565b620001a060201b60201c565b620001097f9f2df0fed2c77648de5860a4cc508cd0818c85b8b8a1ab4ceeef8d981c8956a6620000fd6200019860201b60201c565b620001a060201b60201c565b6200014a7f65d7a28e3265b37a6474929f336521b332c1681b933f6cb9f3376673440d862a6200013e6200019860201b60201c565b620001a060201b60201c565b50505083600f60006101000a81548173ffffffffffffffffffffffffffffffffffffffff021916908373ffffffffffffffffffffffffffffffffffffffff1602179055505050505062000814565b600033905090565b620001b78282620001e860201b620013521760201c565b620001e38160016000858152602001908152602001600020620001fe60201b620013601790919060201c565b505050565b620001fa82826200023660201b60201c565b5050565b60006200022e836000018373ffffffffffffffffffffffffffffffffffffffff1660001b6200032760201b60201c565b905092915050565b620002488282620003a160201b60201c565b6200032357600160008084815260200190815260200160002060000160008373ffffffffffffffffffffffffffffffffffffffff1673ffffffffffffffffffffffffffffffffffffffff16815260200190815260200160002060006101000a81548160ff021916908315150217905550620002c86200019860201b60201c565b73ffffffffffffffffffffffffffffffffffffffff168173ffffffffffffffffffffffffffffffffffffffff16837f2f8788117e7eff1d82e926ec794901d17c78024a50270940304540a733656f0d60405160405180910390a45b5050565b60006200033b83836200040b60201b60201c565b620003965782600001829080600181540180825580915050600190039060005260206000200160009091909190915055826000018054905083600101600084815260200190815260200160002081905550600190506200039b565b600090505b92915050565b600080600084815260200190815260200160002060000160008373ffffffffffffffffffffffffffffffffffffffff1673ffffffffffffffffffffffffffffffffffffffff16815260200190815260200160002060009054906101000a900460ff16905092915050565b600080836001016000848152602001908152602001600020541415905092915050565b8280546200043c90620007de565b90600052602060002090601f016020900481019282620004605760008555620004ac565b82601f106200047b57805160ff1916838001178555620004ac565b82800160010185558215620004ac579182015b82811115620004ab5782518255916020019190600101906200048e565b5b509050620004bb9190620004bf565b5090565b5b80821115620004da576000816000905550600101620004c0565b5090565b6000604051905090565b600080fd5b600080fd5b600073ffffffffffffffffffffffffffffffffffffffff82169050919050565b60006200051f82620004f2565b9050919050565b620005318162000512565b81146200053d57600080fd5b50565b600081519050620005518162000526565b92915050565b600080fd5b600080fd5b6000601f19601f8301169050919050565b7f4e487b7100000000000000000000000000000000000000000000000000000000600052604160045260246000fd5b620005ac8262000561565b810181811067ffffffffffffffff82111715620005ce57620005cd62000572565b5b80604052505050565b6000620005e3620004de565b9050620005f18282620005a1565b919050565b600067ffffffffffffffff82111562000614576200061362000572565b5b6200061f8262000561565b9050602081019050919050565b60005b838110156200064c5780820151818401526020810190506200062f565b838111156200065c576000848401525b50505050565b6000620006796200067384620005f6565b620005d7565b9050828152602081018484840111156200069857620006976200055c565b5b620006a58482856200062c565b509392505050565b600082601f830112620006c557620006c462000557565b5b8151620006d784826020860162000662565b91505092915050565b60008060008060808587031215620006fd57620006fc620004e8565b5b60006200070d8782880162000540565b945050602085015167ffffffffffffffff811115620007315762000730620004ed565b5b6200073f87828801620006ad565b935050604085015167ffffffffffffffff811115620007635762000762620004ed565b5b6200077187828801620006ad565b925050606085015167ffffffffffffffff811115620007955762000794620004ed565b5b620007a387828801620006ad565b91505092959194509250565b7f4e487b7100000000000000000000000000000000000000000000000000000000600052602260045260246000fd5b60006002820490506001821680620007f757607f821691505b602082108114156200080e576200080d620007af565b5b50919050565b61497880620008246000396000f3fe608060405234801561001057600080fd5b50600436106101e55760003560e01c80636352211e1161010f578063a22cb465116100a2578063d539139311610071578063d5391393146105a0578063d547741f146105be578063e63ab1e9146105da578063e985e9c5146105f8576101e5565b8063a22cb46514610508578063b88d4fde14610524578063c87b56dd14610540578063ca15c87314610570576101e5565b80639010d07c116100de5780639010d07c1461046c57806391d148541461049c57806395d89b41146104cc578063a217fddf146104ea576101e5565b80636352211e146103e65780636a6278421461041657806370a08231146104325780638456cb5914610462576101e5565b80632f2ff15d1161018757806342842e0e1161015657806342842e0e1461036057806342966c681461037c5780634f6ccce7146103985780635c975abb146103c8576101e5565b80632f2ff15d146102ee5780632f745c591461030a57806336568abe1461033a5780633f4ba83a14610356576101e5565b8063095ea7b3116101c3578063095ea7b31461026857806318160ddd1461028457806323b872dd146102a2578063248a9ca3146102be576101e5565b806301ffc9a7146101ea57806306fdde031461021a578063081812fc14610238575b600080fd5b61020460048036038101906101ff919061302a565b610628565b6040516102119190613072565b60405180910390f35b61022261063a565b60405161022f9190613126565b60405180910390f35b610252600480360381019061024d919061317e565b6106cc565b60405161025f91906131ec565b60405180910390f35b610282600480360381019061027d9190613233565b610751565b005b61028c610869565b6040516102999190613282565b60405180910390f35b6102bc60048036038101906102b7919061329d565b610876565b005b6102d860048036038101906102d39190613326565b6108d6565b6040516102e59190613362565b60405180910390f35b6103086004803603810190610303919061337d565b6108f5565b005b610324600480360381019061031f9190613233565b610929565b6040516103319190613282565b60405180910390f35b610354600480360381019061034f919061337d565b6109ce565b005b61035e610a02565b005b61037a6004803603810190610375919061329d565b610a7c565b005b6103966004803603810190610391919061317e565b610a9c565b005b6103b260048036038101906103ad919061317e565b610af8565b6040516103bf9190613282565b60405180910390f35b6103d0610b69565b6040516103dd9190613072565b60405180910390f35b61040060048036038101906103fb919061317e565b610b80565b60405161040d91906131ec565b60405180910390f35b610430600480360381019061042b91906133bd565b610c32565b005b61044c600480360381019061044791906133bd565b610cc2565b6040516104599190613282565b60405180910390f35b61046a610d7a565b005b610486600480360381019061048191906133ea565b610df4565b60405161049391906131ec565b60405180910390f35b6104b660048036038101906104b1919061337d565b610e23565b6040516104c39190613072565b60405180910390f35b6104d4610e8d565b6040516104e19190613126565b60405180910390f35b6104f2610f1f565b6040516104ff9190613362565b60405180910390f35b610522600480360381019061051d9190613456565b610f26565b005b61053e600480360381019061053991906135cb565b6110a7565b005b61055a6004803603810190610555919061317e565b611109565b6040516105679190613126565b60405180910390f35b61058a60048036038101906105859190613326565b6111b0565b6040516105979190613282565b60405180910390f35b6105a86111d4565b6040516105b59190613362565b60405180910390f35b6105d860048036038101906105d3919061337d565b6111f8565b005b6105e261122c565b6040516105ef9190613362565b60405180910390f35b610612600480360381019061060d919061364e565b611250565b60405161061f9190613072565b60405180910390f35b600061063382611390565b9050919050565b606060028054610649906136bd565b80601f0160208091040260200160405190810160405280929190818152602001828054610675906136bd565b80156106c25780601f10610697576101008083540402835291602001916106c2565b820191906000526020600020905b8154815290600101906020018083116106a557829003601f168201915b5050505050905090565b60006106d78261140a565b610716576040517f08c379a000000000000000000000000000000000000000000000000000000000815260040161070d90613761565b60405180910390fd5b6006600083815260200190815260200160002060009054906101000a900473ffffffffffffffffffffffffffffffffffffffff169050919050565b600061075c82610b80565b90508073ffffffffffffffffffffffffffffffffffffffff168373ffffffffffffffffffffffffffffffffffffffff1614156107cd576040517f08c379a00000000000000000000000000000000000000000000000000000000081526004016107c4906137f3565b60405180910390fd5b8073ffffffffffffffffffffffffffffffffffffffff166107ec611476565b73ffffffffffffffffffffffffffffffffffffffff16148061081b575061081a81610815611476565b611250565b5b61085a576040517f08c379a000000000000000000000000000000000000000000000000000000000815260040161085190613885565b60405180910390fd5b610864838361147e565b505050565b6000600a80549050905090565b610887610881611476565b82611537565b6108c6576040517f08c379a00000000000000000000000000000000000000000000000000000000081526004016108bd90613917565b60405180910390fd5b6108d1838383611615565b505050565b6000806000838152602001908152602001600020600101549050919050565b6108ff8282611871565b610924816001600085815260200190815260200160002061136090919063ffffffff16565b505050565b600061093483610cc2565b8210610975576040517f08c379a000000000000000000000000000000000000000000000000000000000815260040161096c906139a9565b60405180910390fd5b600860008473ffffffffffffffffffffffffffffffffffffffff1673ffffffffffffffffffffffffffffffffffffffff168152602001908152602001600020600083815260200190815260200160002054905092915050565b6109d8828261189a565b6109fd816001600085815260200190815260200160002061191d90919063ffffffff16565b505050565b610a337f65d7a28e3265b37a6474929f336521b332c1681b933f6cb9f3376673440d862a610a2e611476565b610e23565b610a72576040517f08c379a0000000000000000000000000000000000000000000000000000000008152600401610a6990613a3b565b60405180910390fd5b610a7a61194d565b565b610a97838383604051806020016040528060008152506110a7565b505050565b610aad610aa7611476565b82611537565b610aec576040517f08c379a0000000000000000000000000000000000000000000000000000000008152600401610ae390613acd565b60405180910390fd5b610af5816119ef565b50565b6000610b02610869565b8210610b43576040517f08c379a0000000000000000000000000000000000000000000000000000000008152600401610b3a90613b5f565b60405180910390fd5b600a8281548110610b5757610b56613b7f565b5b90600052602060002001549050919050565b6000600c60009054906101000a900460ff16905090565b6000806004600084815260200190815260200160002060009054906101000a900473ffffffffffffffffffffffffffffffffffffffff169050600073ffffffffffffffffffffffffffffffffffffffff168173ffffffffffffffffffffffffffffffffffffffff161415610c29576040517f08c379a0000000000000000000000000000000000000000000000000000000008152600401610c2090613c20565b60405180910390fd5b80915050919050565b610c637f9f2df0fed2c77648de5860a4cc508cd0818c85b8b8a1ab4ceeef8d981c8956a6610c5e611476565b610e23565b610ca2576040517f08c379a0000000000000000000000000000000000000000000000000000000008152600401610c9990613cb2565b60405180910390fd5b610cb581610cb0600d611b00565b611b0e565b610cbf600d611cdc565b50565b60008073ffffffffffffffffffffffffffffffffffffffff168273ffffffffffffffffffffffffffffffffffffffff161415610d33576040517f08c379a0000000000000000000000000000000000000000000000000000000008152600401610d2a90613d44565b60405180910390fd5b600560008373ffffffffffffffffffffffffffffffffffffffff1673ffffffffffffffffffffffffffffffffffffffff168152602001908152602001600020549050919050565b610dab7f65d7a28e3265b37a6474929f336521b332c1681b933f6cb9f3376673440d862a610da6611476565b610e23565b610dea576040517f08c379a0000000000000000000000000000000000000000000000000000000008152600401610de190613dd6565b60405180910390fd5b610df2611cf2565b565b6000610e1b8260016000868152602001908152602001600020611d9590919063ffffffff16565b905092915050565b600080600084815260200190815260200160002060000160008373ffffffffffffffffffffffffffffffffffffffff1673ffffffffffffffffffffffffffffffffffffffff16815260200190815260200160002060009054906101000a900460ff16905092915050565b606060038054610e9c906136bd565b80601f0160208091040260200160405190810160405280929190818152602001828054610ec8906136bd565b8015610f155780601f10610eea57610100808354040283529160200191610f15565b820191906000526020600020905b815481529060010190602001808311610ef857829003601f168201915b5050505050905090565b6000801b81565b610f2e611476565b73ffffffffffffffffffffffffffffffffffffffff168273ffffffffffffffffffffffffffffffffffffffff161415610f9c576040517f08c379a0000000000000000000000000000000000000000000000000000000008152600401610f9390613e42565b60405180910390fd5b8060076000610fa9611476565b73ffffffffffffffffffffffffffffffffffffffff1673ffffffffffffffffffffffffffffffffffffffff16815260200190815260200160002060008473ffffffffffffffffffffffffffffffffffffffff1673ffffffffffffffffffffffffffffffffffffffff16815260200190815260200160002060006101000a81548160ff0219169083151502179055508173ffffffffffffffffffffffffffffffffffffffff16611056611476565b73ffffffffffffffffffffffffffffffffffffffff167f17307eab39ab6107e8899845ad3d59bd9653f200f220920489ca2b5937696c318360405161109b9190613072565b60405180910390a35050565b6110b86110b2611476565b83611537565b6110f7576040517f08c379a00000000000000000000000000000000000000000000000000000000081526004016110ee90613917565b60405180910390fd5b61110384848484611daf565b50505050565b60606111148261140a565b611153576040517f08c379a000000000000000000000000000000000000000000000000000000000815260040161114a90613ed4565b60405180910390fd5b600061115d611e0b565b9050600081511161117d57604051806020016040528060008152506111a8565b8061118784611e9d565b604051602001611198929190613f30565b6040516020818303038152906040525b915050919050565b60006111cd60016000848152602001908152602001600020611ffe565b9050919050565b7f9f2df0fed2c77648de5860a4cc508cd0818c85b8b8a1ab4ceeef8d981c8956a681565b6112028282612013565b611227816001600085815260200190815260200160002061191d90919063ffffffff16565b505050565b7f65d7a28e3265b37a6474929f336521b332c1681b933f6cb9f3376673440d862a81565b600080600f60009054906101000a900473ffffffffffffffffffffffffffffffffffffffff1690508273ffffffffffffffffffffffffffffffffffffffff168173ffffffffffffffffffffffffffffffffffffffff1663c4552791866040518263ffffffff1660e01b81526004016112c891906131ec565b60206040518083038186803b1580156112e057600080fd5b505afa1580156112f4573d6000803e3d6000fd5b505050506040513d601f19601f820116820180604052508101906113189190613f92565b73ffffffffffffffffffffffffffffffffffffffff16141561133e57600191505061134c565b611348848461203c565b9150505b92915050565b61135c82826120d0565b5050565b6000611388836000018373ffffffffffffffffffffffffffffffffffffffff1660001b6121b0565b905092915050565b60007f780e9d63000000000000000000000000000000000000000000000000000000007bffffffffffffffffffffffffffffffffffffffffffffffffffffffff1916827bffffffffffffffffffffffffffffffffffffffffffffffffffffffff19161480611403575061140282612220565b5b9050919050565b60008073ffffffffffffffffffffffffffffffffffffffff166004600084815260200190815260200160002060009054906101000a900473ffffffffffffffffffffffffffffffffffffffff1673ffffffffffffffffffffffffffffffffffffffff1614159050919050565b600033905090565b816006600083815260200190815260200160002060006101000a81548173ffffffffffffffffffffffffffffffffffffffff021916908373ffffffffffffffffffffffffffffffffffffffff160217905550808273ffffffffffffffffffffffffffffffffffffffff166114f183610b80565b73ffffffffffffffffffffffffffffffffffffffff167f8c5be1e5ebec7d5bd14f71427d1e84f3dd0314c0f7b2291e5b200ac8c7c3b92560405160405180910390a45050565b60006115428261140a565b611581576040517f08c379a000000000000000000000000000000000000000000000000000000000815260040161157890614031565b60405180910390fd5b600061158c83610b80565b90508073ffffffffffffffffffffffffffffffffffffffff168473ffffffffffffffffffffffffffffffffffffffff1614806115fb57508373ffffffffffffffffffffffffffffffffffffffff166115e3846106cc565b73ffffffffffffffffffffffffffffffffffffffff16145b8061160c575061160b8185611250565b5b91505092915050565b8273ffffffffffffffffffffffffffffffffffffffff1661163582610b80565b73ffffffffffffffffffffffffffffffffffffffff161461168b576040517f08c379a0000000000000000000000000000000000000000000000000000000008152600401611682906140c3565b60405180910390fd5b600073ffffffffffffffffffffffffffffffffffffffff168273ffffffffffffffffffffffffffffffffffffffff1614156116fb576040517f08c379a00000000000000000000000000000000000000000000000000000000081526004016116f290614155565b60405180910390fd5b611706838383612302565b61171160008261147e565b6001600560008573ffffffffffffffffffffffffffffffffffffffff1673ffffffffffffffffffffffffffffffffffffffff168152602001908152602001600020600082825461176191906141a4565b925050819055506001600560008473ffffffffffffffffffffffffffffffffffffffff1673ffffffffffffffffffffffffffffffffffffffff16815260200190815260200160002060008282546117b891906141d8565b92505081905550816004600083815260200190815260200160002060006101000a81548173ffffffffffffffffffffffffffffffffffffffff021916908373ffffffffffffffffffffffffffffffffffffffff160217905550808273ffffffffffffffffffffffffffffffffffffffff168473ffffffffffffffffffffffffffffffffffffffff167fddf252ad1be2c89b69c2b068fc378daa952ba7f163c4a11628f55a4df523b3ef60405160405180910390a4505050565b61187a826108d6565b61188b81611886611476565b612312565b61189583836120d0565b505050565b6118a2611476565b73ffffffffffffffffffffffffffffffffffffffff168173ffffffffffffffffffffffffffffffffffffffff161461190f576040517f08c379a0000000000000000000000000000000000000000000000000000000008152600401611906906142a0565b60405180910390fd5b61191982826123af565b5050565b6000611945836000018373ffffffffffffffffffffffffffffffffffffffff1660001b612490565b905092915050565b611955610b69565b611994576040517f08c379a000000000000000000000000000000000000000000000000000000000815260040161198b9061430c565b60405180910390fd5b6000600c60006101000a81548160ff0219169083151502179055507f5db9ee0a495bf2e6ff9c91a7834c1ba4fdd244a5e8aa4e537bd38aeae4b073aa6119d8611476565b6040516119e591906131ec565b60405180910390a1565b60006119fa82610b80565b9050611a0881600084612302565b611a1360008361147e565b6001600560008373ffffffffffffffffffffffffffffffffffffffff1673ffffffffffffffffffffffffffffffffffffffff1681526020019081526020016000206000828254611a6391906141a4565b925050819055506004600083815260200190815260200160002060006101000a81549073ffffffffffffffffffffffffffffffffffffffff021916905581600073ffffffffffffffffffffffffffffffffffffffff168273ffffffffffffffffffffffffffffffffffffffff167fddf252ad1be2c89b69c2b068fc378daa952ba7f163c4a11628f55a4df523b3ef60405160405180910390a45050565b600081600001549050919050565b600073ffffffffffffffffffffffffffffffffffffffff168273ffffffffffffffffffffffffffffffffffffffff161415611b7e576040517f08c379a0000000000000000000000000000000000000000000000000000000008152600401611b7590614378565b60405180910390fd5b611b878161140a565b15611bc7576040517f08c379a0000000000000000000000000000000000000000000000000000000008152600401611bbe906143e4565b60405180910390fd5b611bd360008383612302565b6001600560008473ffffffffffffffffffffffffffffffffffffffff1673ffffffffffffffffffffffffffffffffffffffff1681526020019081526020016000206000828254611c2391906141d8565b92505081905550816004600083815260200190815260200160002060006101000a81548173ffffffffffffffffffffffffffffffffffffffff021916908373ffffffffffffffffffffffffffffffffffffffff160217905550808273ffffffffffffffffffffffffffffffffffffffff16600073ffffffffffffffffffffffffffffffffffffffff167fddf252ad1be2c89b69c2b068fc378daa952ba7f163c4a11628f55a4df523b3ef60405160405180910390a45050565b6001816000016000828254019250508190555050565b611cfa610b69565b15611d3a576040517f08c379a0000000000000000000000000000000000000000000000000000000008152600401611d3190614450565b60405180910390fd5b6001600c60006101000a81548160ff0219169083151502179055507f62e78cea01bee320cd4e420270b5ea74000d11b0c9f74754ebdbfc544b05a258611d7e611476565b604051611d8b91906131ec565b60405180910390a1565b6000611da483600001836125a4565b60001c905092915050565b611dba848484611615565b611dc6848484846125cf565b611e05576040517f08c379a0000000000000000000000000000000000000000000000000000000008152600401611dfc906144e2565b60405180910390fd5b50505050565b6060600e8054611e1a906136bd565b80601f0160208091040260200160405190810160405280929190818152602001828054611e46906136bd565b8015611e935780601f10611e6857610100808354040283529160200191611e93565b820191906000526020600020905b815481529060010190602001808311611e7657829003601f168201915b5050505050905090565b60606000821415611ee5576040518060400160405280600181526020017f30000000000000000000000000000000000000000000000000000000000000008152509050611ff9565b600082905060005b60008214611f17578080611f0090614502565b915050600a82611f10919061457a565b9150611eed565b60008167ffffffffffffffff811115611f3357611f326134a0565b5b6040519080825280601f01601f191660200182016040528015611f655781602001600182028036833780820191505090505b5090505b60008514611ff257600182611f7e91906141a4565b9150600a85611f8d91906145ab565b6030611f9991906141d8565b60f81b818381518110611faf57611fae613b7f565b5b60200101907effffffffffffffffffffffffffffffffffffffffffffffffffffffffffffff1916908160001a905350600a85611feb919061457a565b9450611f69565b8093505050505b919050565b600061200c82600001612766565b9050919050565b61201c826108d6565b61202d81612028611476565b612312565b61203783836123af565b505050565b6000600760008473ffffffffffffffffffffffffffffffffffffffff1673ffffffffffffffffffffffffffffffffffffffff16815260200190815260200160002060008373ffffffffffffffffffffffffffffffffffffffff1673ffffffffffffffffffffffffffffffffffffffff16815260200190815260200160002060009054906101000a900460ff16905092915050565b6120da8282610e23565b6121ac57600160008084815260200190815260200160002060000160008373ffffffffffffffffffffffffffffffffffffffff1673ffffffffffffffffffffffffffffffffffffffff16815260200190815260200160002060006101000a81548160ff021916908315150217905550612151611476565b73ffffffffffffffffffffffffffffffffffffffff168173ffffffffffffffffffffffffffffffffffffffff16837f2f8788117e7eff1d82e926ec794901d17c78024a50270940304540a733656f0d60405160405180910390a45b5050565b60006121bc8383612777565b61221557826000018290806001815401808255809150506001900390600052602060002001600090919091909150558260000180549050836001016000848152602001908152602001600020819055506001905061221a565b600090505b92915050565b60007f80ac58cd000000000000000000000000000000000000000000000000000000007bffffffffffffffffffffffffffffffffffffffffffffffffffffffff1916827bffffffffffffffffffffffffffffffffffffffffffffffffffffffff191614806122eb57507f5b5e139f000000000000000000000000000000000000000000000000000000007bffffffffffffffffffffffffffffffffffffffffffffffffffffffff1916827bffffffffffffffffffffffffffffffffffffffffffffffffffffffff1916145b806122fb57506122fa8261279a565b5b9050919050565b61230d838383612814565b505050565b61231c8282610e23565b6123ab576123418173ffffffffffffffffffffffffffffffffffffffff16601461286c565b61234f8360001c602061286c565b604051602001612360929190614674565b6040516020818303038152906040526040517f08c379a00000000000000000000000000000000000000000000000000000000081526004016123a29190613126565b60405180910390fd5b5050565b6123b98282610e23565b1561248c57600080600084815260200190815260200160002060000160008373ffffffffffffffffffffffffffffffffffffffff1673ffffffffffffffffffffffffffffffffffffffff16815260200190815260200160002060006101000a81548160ff021916908315150217905550612431611476565b73ffffffffffffffffffffffffffffffffffffffff168173ffffffffffffffffffffffffffffffffffffffff16837ff6391f5c32d9c69d2a47ea670b442974b53935d1edc7fd64eb21e047a839171b60405160405180910390a45b5050565b600080836001016000848152602001908152602001600020549050600081146125985760006001826124c291906141a4565b90506000600186600001805490506124da91906141a4565b90508181146125495760008660000182815481106124fb576124fa613b7f565b5b906000526020600020015490508087600001848154811061251f5761251e613b7f565b5b90600052602060002001819055508387600101600083815260200190815260200160002081905550505b8560000180548061255d5761255c6146ae565b5b60019003818190600052602060002001600090559055856001016000868152602001908152602001600020600090556001935050505061259e565b60009150505b92915050565b60008260000182815481106125bc576125bb613b7f565b5b9060005260206000200154905092915050565b60006125f08473ffffffffffffffffffffffffffffffffffffffff16612aa8565b15612759578373ffffffffffffffffffffffffffffffffffffffff1663150b7a02612619611476565b8786866040518563ffffffff1660e01b815260040161263b9493929190614732565b602060405180830381600087803b15801561265557600080fd5b505af192505050801561268657506040513d601f19601f820116820180604052508101906126839190614793565b60015b612709573d80600081146126b6576040519150601f19603f3d011682016040523d82523d6000602084013e6126bb565b606091505b50600081511415612701576040517f08c379a00000000000000000000000000000000000000000000000000000000081526004016126f8906144e2565b60405180910390fd5b805181602001fd5b63150b7a0260e01b7bffffffffffffffffffffffffffffffffffffffffffffffffffffffff1916817bffffffffffffffffffffffffffffffffffffffffffffffffffffffff19161491505061275e565b600190505b949350505050565b600081600001805490509050919050565b600080836001016000848152602001908152602001600020541415905092915050565b60007f5a05180f000000000000000000000000000000000000000000000000000000007bffffffffffffffffffffffffffffffffffffffffffffffffffffffff1916827bffffffffffffffffffffffffffffffffffffffffffffffffffffffff1916148061280d575061280c82612abb565b5b9050919050565b61281f838383612b35565b612827610b69565b15612867576040517f08c379a000000000000000000000000000000000000000000000000000000000815260040161285e90614832565b60405180910390fd5b505050565b60606000600283600261287f9190614852565b61288991906141d8565b67ffffffffffffffff8111156128a2576128a16134a0565b5b6040519080825280601f01601f1916602001820160405280156128d45781602001600182028036833780820191505090505b5090507f30000000000000000000000000000000000000000000000000000000000000008160008151811061290c5761290b613b7f565b5b60200101907effffffffffffffffffffffffffffffffffffffffffffffffffffffffffffff1916908160001a9053507f7800000000000000000000000000000000000000000000000000000000000000816001815181106129705761296f613b7f565b5b60200101907effffffffffffffffffffffffffffffffffffffffffffffffffffffffffffff1916908160001a905350600060018460026129b09190614852565b6129ba91906141d8565b90505b6001811115612a5a577f3031323334353637383961626364656600000000000000000000000000000000600f8616601081106129fc576129fb613b7f565b5b1a60f81b828281518110612a1357612a12613b7f565b5b60200101907effffffffffffffffffffffffffffffffffffffffffffffffffffffffffffff1916908160001a905350600485901c945080612a53906148ac565b90506129bd565b5060008414612a9e576040517f08c379a0000000000000000000000000000000000000000000000000000000008152600401612a9590614922565b60405180910390fd5b8091505092915050565b600080823b905060008111915050919050565b60007f7965db0b000000000000000000000000000000000000000000000000000000007bffffffffffffffffffffffffffffffffffffffffffffffffffffffff1916827bffffffffffffffffffffffffffffffffffffffffffffffffffffffff19161480612b2e5750612b2d82612c49565b5b9050919050565b612b40838383612cb3565b600073ffffffffffffffffffffffffffffffffffffffff168373ffffffffffffffffffffffffffffffffffffffff161415612b8357612b7e81612cb8565b612bc2565b8173ffffffffffffffffffffffffffffffffffffffff168373ffffffffffffffffffffffffffffffffffffffff1614612bc157612bc08382612d01565b5b5b600073ffffffffffffffffffffffffffffffffffffffff168273ffffffffffffffffffffffffffffffffffffffff161415612c0557612c0081612e6e565b612c44565b8273ffffffffffffffffffffffffffffffffffffffff168273ffffffffffffffffffffffffffffffffffffffff1614612c4357612c428282612f3f565b5b5b505050565b60007f01ffc9a7000000000000000000000000000000000000000000000000000000007bffffffffffffffffffffffffffffffffffffffffffffffffffffffff1916827bffffffffffffffffffffffffffffffffffffffffffffffffffffffff1916149050919050565b505050565b600a80549050600b600083815260200190815260200160002081905550600a81908060018154018082558091505060019003906000526020600020016000909190919091505550565b60006001612d0e84610cc2565b612d1891906141a4565b9050600060096000848152602001908152602001600020549050818114612dfd576000600860008673ffffffffffffffffffffffffffffffffffffffff1673ffffffffffffffffffffffffffffffffffffffff168152602001908152602001600020600084815260200190815260200160002054905080600860008773ffffffffffffffffffffffffffffffffffffffff1673ffffffffffffffffffffffffffffffffffffffff168152602001908152602001600020600084815260200190815260200160002081905550816009600083815260200190815260200160002081905550505b6009600084815260200190815260200160002060009055600860008573ffffffffffffffffffffffffffffffffffffffff1673ffffffffffffffffffffffffffffffffffffffff16815260200190815260200160002060008381526020019081526020016000206000905550505050565b60006001600a80549050612e8291906141a4565b90506000600b60008481526020019081526020016000205490506000600a8381548110612eb257612eb1613b7f565b5b9060005260206000200154905080600a8381548110612ed457612ed3613b7f565b5b906000526020600020018190555081600b600083815260200190815260200160002081905550600b600085815260200190815260200160002060009055600a805480612f2357612f226146ae565b5b6001900381819060005260206000200160009055905550505050565b6000612f4a83610cc2565b905081600860008573ffffffffffffffffffffffffffffffffffffffff1673ffffffffffffffffffffffffffffffffffffffff168152602001908152602001600020600083815260200190815260200160002081905550806009600084815260200190815260200160002081905550505050565b6000604051905090565b600080fd5b600080fd5b60007fffffffff0000000000000000000000000000000000000000000000000000000082169050919050565b61300781612fd2565b811461301257600080fd5b50565b60008135905061302481612ffe565b92915050565b6000602082840312156130405761303f612fc8565b5b600061304e84828501613015565b91505092915050565b60008115159050919050565b61306c81613057565b82525050565b60006020820190506130876000830184613063565b92915050565b600081519050919050565b600082825260208201905092915050565b60005b838110156130c75780820151818401526020810190506130ac565b838111156130d6576000848401525b50505050565b6000601f19601f8301169050919050565b60006130f88261308d565b6131028185613098565b93506131128185602086016130a9565b61311b816130dc565b840191505092915050565b6000602082019050818103600083015261314081846130ed565b905092915050565b6000819050919050565b61315b81613148565b811461316657600080fd5b50565b60008135905061317881613152565b92915050565b60006020828403121561319457613193612fc8565b5b60006131a284828501613169565b91505092915050565b600073ffffffffffffffffffffffffffffffffffffffff82169050919050565b60006131d6826131ab565b9050919050565b6131e6816131cb565b82525050565b600060208201905061320160008301846131dd565b92915050565b613210816131cb565b811461321b57600080fd5b50565b60008135905061322d81613207565b92915050565b6000806040838503121561324a57613249612fc8565b5b60006132588582860161321e565b925050602061326985828601613169565b9150509250929050565b61327c81613148565b82525050565b60006020820190506132976000830184613273565b92915050565b6000806000606084860312156132b6576132b5612fc8565b5b60006132c48682870161321e565b93505060206132d58682870161321e565b92505060406132e686828701613169565b9150509250925092565b6000819050919050565b613303816132f0565b811461330e57600080fd5b50565b600081359050613320816132fa565b92915050565b60006020828403121561333c5761333b612fc8565b5b600061334a84828501613311565b91505092915050565b61335c816132f0565b82525050565b60006020820190506133776000830184613353565b92915050565b6000806040838503121561339457613393612fc8565b5b60006133a285828601613311565b92505060206133b38582860161321e565b9150509250929050565b6000602082840312156133d3576133d2612fc8565b5b60006133e18482850161321e565b91505092915050565b6000806040838503121561340157613400612fc8565b5b600061340f85828601613311565b925050602061342085828601613169565b9150509250929050565b61343381613057565b811461343e57600080fd5b50565b6000813590506134508161342a565b92915050565b6000806040838503121561346d5761346c612fc8565b5b600061347b8582860161321e565b925050602061348c85828601613441565b9150509250929050565b600080fd5b600080fd5b7f4e487b7100000000000000000000000000000000000000000000000000000000600052604160045260246000fd5b6134d8826130dc565b810181811067ffffffffffffffff821117156134f7576134f66134a0565b5b80604052505050565b600061350a612fbe565b905061351682826134cf565b919050565b600067ffffffffffffffff821115613536576135356134a0565b5b61353f826130dc565b9050602081019050919050565b82818337600083830152505050565b600061356e6135698461351b565b613500565b90508281526020810184848401111561358a5761358961349b565b5b61359584828561354c565b509392505050565b600082601f8301126135b2576135b1613496565b5b81356135c284826020860161355b565b91505092915050565b600080600080608085870312156135e5576135e4612fc8565b5b60006135f38782880161321e565b94505060206136048782880161321e565b935050604061361587828801613169565b925050606085013567ffffffffffffffff81111561363657613635612fcd565b5b6136428782880161359d565b91505092959194509250565b6000806040838503121561366557613664612fc8565b5b60006136738582860161321e565b92505060206136848582860161321e565b9150509250929050565b7f4e487b7100000000000000000000000000000000000000000000000000000000600052602260045260246000fd5b600060028204905060018216806136d557607f821691505b602082108114156136e9576136e861368e565b5b50919050565b7f4552433732313a20617070726f76656420717565727920666f72206e6f6e657860008201527f697374656e7420746f6b656e0000000000000000000000000000000000000000602082015250565b600061374b602c83613098565b9150613756826136ef565b604082019050919050565b6000602082019050818103600083015261377a8161373e565b9050919050565b7f4552433732313a20617070726f76616c20746f2063757272656e74206f776e6560008201527f7200000000000000000000000000000000000000000000000000000000000000602082015250565b60006137dd602183613098565b91506137e882613781565b604082019050919050565b6000602082019050818103600083015261380c816137d0565b9050919050565b7f4552433732313a20617070726f76652063616c6c6572206973206e6f74206f7760008201527f6e6572206e6f7220617070726f76656420666f7220616c6c0000000000000000602082015250565b600061386f603883613098565b915061387a82613813565b604082019050919050565b6000602082019050818103600083015261389e81613862565b9050919050565b7f4552433732313a207472616e736665722063616c6c6572206973206e6f74206f60008201527f776e6572206e6f7220617070726f766564000000000000000000000000000000602082015250565b6000613901603183613098565b915061390c826138a5565b604082019050919050565b60006020820190508181036000830152613930816138f4565b9050919050565b7f455243373231456e756d657261626c653a206f776e657220696e646578206f7560008201527f74206f6620626f756e6473000000000000000000000000000000000000000000602082015250565b6000613993602b83613098565b915061399e82613937565b604082019050919050565b600060208201905081810360008301526139c281613986565b9050919050565b7f4552433732315072657365744d696e7465725061757365724175746f49643a2060008201527f6d75737420686176652070617573657220726f6c6520746f20756e7061757365602082015250565b6000613a25604083613098565b9150613a30826139c9565b604082019050919050565b60006020820190508181036000830152613a5481613a18565b9050919050565b7f4552433732314275726e61626c653a2063616c6c6572206973206e6f74206f7760008201527f6e6572206e6f7220617070726f76656400000000000000000000000000000000602082015250565b6000613ab7603083613098565b9150613ac282613a5b565b604082019050919050565b60006020820190508181036000830152613ae681613aaa565b9050919050565b7f455243373231456e756d657261626c653a20676c6f62616c20696e646578206f60008201527f7574206f6620626f756e64730000000000000000000000000000000000000000602082015250565b6000613b49602c83613098565b9150613b5482613aed565b604082019050919050565b60006020820190508181036000830152613b7881613b3c565b9050919050565b7f4e487b7100000000000000000000000000000000000000000000000000000000600052603260045260246000fd5b7f4552433732313a206f776e657220717565727920666f72206e6f6e657869737460008201527f656e7420746f6b656e0000000000000000000000000000000000000000000000602082015250565b6000613c0a602983613098565b9150613c1582613bae565b604082019050919050565b60006020820190508181036000830152613c3981613bfd565b9050919050565b7f4552433732315072657365744d696e7465725061757365724175746f49643a2060008201527f6d7573742068617665206d696e74657220726f6c6520746f206d696e74000000602082015250565b6000613c9c603d83613098565b9150613ca782613c40565b604082019050919050565b60006020820190508181036000830152613ccb81613c8f565b9050919050565b7f4552433732313a2062616c616e636520717565727920666f7220746865207a6560008201527f726f206164647265737300000000000000000000000000000000000000000000602082015250565b6000613d2e602a83613098565b9150613d3982613cd2565b604082019050919050565b60006020820190508181036000830152613d5d81613d21565b9050919050565b7f4552433732315072657365744d696e7465725061757365724175746f49643a2060008201527f6d75737420686176652070617573657220726f6c6520746f2070617573650000602082015250565b6000613dc0603e83613098565b9150613dcb82613d64565b604082019050919050565b60006020820190508181036000830152613def81613db3565b9050919050565b7f4552433732313a20617070726f766520746f2063616c6c657200000000000000600082015250565b6000613e2c601983613098565b9150613e3782613df6565b602082019050919050565b60006020820190508181036000830152613e5b81613e1f565b9050919050565b7f4552433732314d657461646174613a2055524920717565727920666f72206e6f60008201527f6e6578697374656e7420746f6b656e0000000000000000000000000000000000602082015250565b6000613ebe602f83613098565b9150613ec982613e62565b604082019050919050565b60006020820190508181036000830152613eed81613eb1565b9050919050565b600081905092915050565b6000613f0a8261308d565b613f148185613ef4565b9350613f248185602086016130a9565b80840191505092915050565b6000613f3c8285613eff565b9150613f488284613eff565b91508190509392505050565b6000613f5f826131cb565b9050919050565b613f6f81613f54565b8114613f7a57600080fd5b50565b600081519050613f8c81613f66565b92915050565b600060208284031215613fa857613fa7612fc8565b5b6000613fb684828501613f7d565b91505092915050565b7f4552433732313a206f70657261746f7220717565727920666f72206e6f6e657860008201527f697374656e7420746f6b656e0000000000000000000000000000000000000000602082015250565b600061401b602c83613098565b915061402682613fbf565b604082019050919050565b6000602082019050818103600083015261404a8161400e565b9050919050565b7f4552433732313a207472616e73666572206f6620746f6b656e2074686174206960008201527f73206e6f74206f776e0000000000000000000000000000000000000000000000602082015250565b60006140ad602983613098565b91506140b882614051565b604082019050919050565b600060208201905081810360008301526140dc816140a0565b9050919050565b7f4552433732313a207472616e7366657220746f20746865207a65726f2061646460008201527f7265737300000000000000000000000000000000000000000000000000000000602082015250565b600061413f602483613098565b915061414a826140e3565b604082019050919050565b6000602082019050818103600083015261416e81614132565b9050919050565b7f4e487b7100000000000000000000000000000000000000000000000000000000600052601160045260246000fd5b60006141af82613148565b91506141ba83613148565b9250828210156141cd576141cc614175565b5b828203905092915050565b60006141e382613148565b91506141ee83613148565b9250827fffffffffffffffffffffffffffffffffffffffffffffffffffffffffffffffff0382111561422357614222614175565b5b828201905092915050565b7f416363657373436f6e74726f6c3a2063616e206f6e6c792072656e6f756e636560008201527f20726f6c657320666f722073656c660000000000000000000000000000000000602082015250565b600061428a602f83613098565b91506142958261422e565b604082019050919050565b600060208201905081810360008301526142b98161427d565b9050919050565b7f5061757361626c653a206e6f7420706175736564000000000000000000000000600082015250565b60006142f6601483613098565b9150614301826142c0565b602082019050919050565b60006020820190508181036000830152614325816142e9565b9050919050565b7f4552433732313a206d696e7420746f20746865207a65726f2061646472657373600082015250565b6000614362602083613098565b915061436d8261432c565b602082019050919050565b6000602082019050818103600083015261439181614355565b9050919050565b7f4552433732313a20746f6b656e20616c7265616479206d696e74656400000000600082015250565b60006143ce601c83613098565b91506143d982614398565b602082019050919050565b600060208201905081810360008301526143fd816143c1565b9050919050565b7f5061757361626c653a2070617573656400000000000000000000000000000000600082015250565b600061443a601083613098565b915061444582614404565b602082019050919050565b600060208201905081810360008301526144698161442d565b9050919050565b7f4552433732313a207472616e7366657220746f206e6f6e20455243373231526560008201527f63656976657220696d706c656d656e7465720000000000000000000000000000602082015250565b60006144cc603283613098565b91506144d782614470565b604082019050919050565b600060208201905081810360008301526144fb816144bf565b9050919050565b600061450d82613148565b91507fffffffffffffffffffffffffffffffffffffffffffffffffffffffffffffffff8214156145405761453f614175565b5b600182019050919050565b7f4e487b7100000000000000000000000000000000000000000000000000000000600052601260045260246000fd5b600061458582613148565b915061459083613148565b9250826145a05761459f61454b565b5b828204905092915050565b60006145b682613148565b91506145c183613148565b9250826145d1576145d061454b565b5b828206905092915050565b7f416363657373436f6e74726f6c3a206163636f756e7420000000000000000000600082015250565b6000614612601783613ef4565b915061461d826145dc565b601782019050919050565b7f206973206d697373696e6720726f6c6520000000000000000000000000000000600082015250565b600061465e601183613ef4565b915061466982614628565b601182019050919050565b600061467f82614605565b915061468b8285613eff565b915061469682614651565b91506146a28284613eff565b91508190509392505050565b7f4e487b7100000000000000000000000000000000000000000000000000000000600052603160045260246000fd5b600081519050919050565b600082825260208201905092915050565b6000614704826146dd565b61470e81856146e8565b935061471e8185602086016130a9565b614727816130dc565b840191505092915050565b600060808201905061474760008301876131dd565b61475460208301866131dd565b6147616040830185613273565b818103606083015261477381846146f9565b905095945050505050565b60008151905061478d81612ffe565b92915050565b6000602082840312156147a9576147a8612fc8565b5b60006147b78482850161477e565b91505092915050565b7f4552433732315061757361626c653a20746f6b656e207472616e73666572207760008201527f68696c6520706175736564000000000000000000000000000000000000000000602082015250565b600061481c602b83613098565b9150614827826147c0565b604082019050919050565b6000602082019050818103600083015261484b8161480f565b9050919050565b600061485d82613148565b915061486883613148565b9250817fffffffffffffffffffffffffffffffffffffffffffffffffffffffffffffffff04831182151516156148a1576148a0614175565b5b828202905092915050565b60006148b782613148565b915060008214156148cb576148ca614175565b5b600182039050919050565b7f537472696e67733a20686578206c656e67746820696e73756666696369656e74600082015250565b600061490c602083613098565b9150614917826148d6565b602082019050919050565b6000602082019050818103600083015261493b816148ff565b905091905056fea26469706673582212205bd3098286f642c3a59dbb5f87a745371877da3ad4621bfcfc0e573b735b518a64736f6c63430008090033",
  "immutableReferences": {},
  "source": "// SPDX-License-Identifier: MIT\npragma solidity ^0.8.0;\n\nimport \"@openzeppelin/contracts/token/ERC721/presets/ERC721PresetMinterPauserAutoId.sol\";\n\ncontract OwnableDelegateProxy {}\n\ncontract ProxyRegistry {\n    mapping(address => OwnableDelegateProxy) public proxies;\n}\n\ncontract CryptXxx is ERC721PresetMinterPauserAutoId {\n    address proxyRegistryAddress;\n\n    constructor(\n        address _proxyRegistryAddress,\n        string memory _name,\n        string memory _symbol,\n        string memory _baseTokenURI) ERC721PresetMinterPauserAutoId(\n            _name,\n            _symbol,\n            _baseTokenURI) {\n        proxyRegistryAddress = _proxyRegistryAddress;\n    }\n\n    function isApprovedForAll(address _owner, address _operator)\n        public override view returns (bool)\n    {\n        ProxyRegistry proxyRegistry = ProxyRegistry(proxyRegistryAddress);\n        if (address(proxyRegistry.proxies(_owner)) == _operator) {\n            return true;\n        }\n\n        return super.isApprovedForAll(_owner, _operator);\n    }\n}\n",
  "sourcePath": "/Users/sasakitakashi/first-nft/contracts/CryptXxx.sol",
  "compiler": {
    "name": "solc",
    "version": "0.8.9+commit.e5eed63a.Emscripten.clang"
  },
  "schemaVersion": "3.4.3",
  "updatedAt": "2021-10-09T06:12:00.705Z",
  "networkType": "ethereum",
  "devdoc": {
    "kind": "dev",
    "methods": {
      "approve(address,uint256)": {
        "details": "See {IERC721-approve}."
      },
      "balanceOf(address)": {
        "details": "See {IERC721-balanceOf}."
      },
      "burn(uint256)": {
        "details": "Burns `tokenId`. See {ERC721-_burn}. Requirements: - The caller must own `tokenId` or be an approved operator."
      },
      "getApproved(uint256)": {
        "details": "See {IERC721-getApproved}."
      },
      "getRoleAdmin(bytes32)": {
        "details": "Returns the admin role that controls `role`. See {grantRole} and {revokeRole}. To change a role's admin, use {_setRoleAdmin}."
      },
      "getRoleMember(bytes32,uint256)": {
        "details": "Returns one of the accounts that have `role`. `index` must be a value between 0 and {getRoleMemberCount}, non-inclusive. Role bearers are not sorted in any particular way, and their ordering may change at any point. WARNING: When using {getRoleMember} and {getRoleMemberCount}, make sure you perform all queries on the same block. See the following https://forum.openzeppelin.com/t/iterating-over-elements-on-enumerableset-in-openzeppelin-contracts/2296[forum post] for more information."
      },
      "getRoleMemberCount(bytes32)": {
        "details": "Returns the number of accounts that have `role`. Can be used together with {getRoleMember} to enumerate all bearers of a role."
      },
      "grantRole(bytes32,address)": {
        "details": "Overload {grantRole} to track enumerable memberships"
      },
      "hasRole(bytes32,address)": {
        "details": "Returns `true` if `account` has been granted `role`."
      },
      "mint(address)": {
        "details": "Creates a new token for `to`. Its token ID will be automatically assigned (and available on the emitted {IERC721-Transfer} event), and the token URI autogenerated based on the base URI passed at construction. See {ERC721-_mint}. Requirements: - the caller must have the `MINTER_ROLE`."
      },
      "name()": {
        "details": "See {IERC721Metadata-name}."
      },
      "ownerOf(uint256)": {
        "details": "See {IERC721-ownerOf}."
      },
      "pause()": {
        "details": "Pauses all token transfers. See {ERC721Pausable} and {Pausable-_pause}. Requirements: - the caller must have the `PAUSER_ROLE`."
      },
      "paused()": {
        "details": "Returns true if the contract is paused, and false otherwise."
      },
      "renounceRole(bytes32,address)": {
        "details": "Overload {renounceRole} to track enumerable memberships"
      },
      "revokeRole(bytes32,address)": {
        "details": "Overload {revokeRole} to track enumerable memberships"
      },
      "safeTransferFrom(address,address,uint256)": {
        "details": "See {IERC721-safeTransferFrom}."
      },
      "safeTransferFrom(address,address,uint256,bytes)": {
        "details": "See {IERC721-safeTransferFrom}."
      },
      "setApprovalForAll(address,bool)": {
        "details": "See {IERC721-setApprovalForAll}."
      },
      "supportsInterface(bytes4)": {
        "details": "See {IERC165-supportsInterface}."
      },
      "symbol()": {
        "details": "See {IERC721Metadata-symbol}."
      },
      "tokenByIndex(uint256)": {
        "details": "See {IERC721Enumerable-tokenByIndex}."
      },
      "tokenOfOwnerByIndex(address,uint256)": {
        "details": "See {IERC721Enumerable-tokenOfOwnerByIndex}."
      },
      "tokenURI(uint256)": {
        "details": "See {IERC721Metadata-tokenURI}."
      },
      "totalSupply()": {
        "details": "See {IERC721Enumerable-totalSupply}."
      },
      "transferFrom(address,address,uint256)": {
        "details": "See {IERC721-transferFrom}."
      },
      "unpause()": {
        "details": "Unpauses all token transfers. See {ERC721Pausable} and {Pausable-_unpause}. Requirements: - the caller must have the `PAUSER_ROLE`."
      }
    },
    "version": 1
  },
  "userdoc": {
    "kind": "user",
    "methods": {},
    "version": 1
  }
}